{
  "_format": "hh-sol-artifact-1",
  "contractName": "ApesNFT",
  "sourceName": "contracts/ApesNFT.sol",
  "abi": [
    {
      "inputs": [
        {
          "internalType": "string",
          "name": "_name",
          "type": "string"
        },
        {
          "internalType": "string",
          "name": "_symbol",
          "type": "string"
        },
        {
          "internalType": "uint256",
          "name": "_royaltyPercentage",
          "type": "uint256"
        }
      ],
      "stateMutability": "nonpayable",
      "type": "constructor"
    },
    {
      "anonymous": false,
      "inputs": [
        {
          "indexed": true,
          "internalType": "address",
          "name": "owner",
          "type": "address"
        },
        {
          "indexed": true,
          "internalType": "address",
          "name": "approved",
          "type": "address"
        },
        {
          "indexed": true,
          "internalType": "uint256",
          "name": "tokenId",
          "type": "uint256"
        }
      ],
      "name": "Approval",
      "type": "event"
    },
    {
      "anonymous": false,
      "inputs": [
        {
          "indexed": true,
          "internalType": "address",
          "name": "owner",
          "type": "address"
        },
        {
          "indexed": true,
          "internalType": "address",
          "name": "operator",
          "type": "address"
        },
        {
          "indexed": false,
          "internalType": "bool",
          "name": "approved",
          "type": "bool"
        }
      ],
      "name": "ApprovalForAll",
      "type": "event"
    },
    {
      "anonymous": false,
      "inputs": [
        {
          "indexed": false,
          "internalType": "uint256",
          "name": "_nftId",
          "type": "uint256"
        },
        {
          "indexed": false,
          "internalType": "address",
          "name": "_owner",
          "type": "address"
        },
        {
          "indexed": false,
          "internalType": "string",
          "name": "_nftURI",
          "type": "string"
        }
      ],
      "name": "LogNFTMinted",
      "type": "event"
    },
    {
      "anonymous": false,
      "inputs": [
        {
          "indexed": true,
          "internalType": "address",
          "name": "previousOwner",
          "type": "address"
        },
        {
          "indexed": true,
          "internalType": "address",
          "name": "newOwner",
          "type": "address"
        }
      ],
      "name": "OwnershipTransferred",
      "type": "event"
    },
    {
      "anonymous": false,
      "inputs": [
        {
          "indexed": true,
          "internalType": "address",
          "name": "from",
          "type": "address"
        },
        {
          "indexed": true,
          "internalType": "address",
          "name": "to",
          "type": "address"
        },
        {
          "indexed": true,
          "internalType": "uint256",
          "name": "tokenId",
          "type": "uint256"
        }
      ],
      "name": "Transfer",
      "type": "event"
    },
    {
      "inputs": [],
      "name": "MAX_ROYALTIES_PERCENTAGE",
      "outputs": [
        {
          "internalType": "uint256",
          "name": "",
          "type": "uint256"
        }
      ],
      "stateMutability": "view",
      "type": "function"
    },
    {
      "inputs": [
        {
          "internalType": "address",
          "name": "to",
          "type": "address"
        },
        {
          "internalType": "uint256",
          "name": "tokenId",
          "type": "uint256"
        }
      ],
      "name": "approve",
      "outputs": [],
      "stateMutability": "nonpayable",
      "type": "function"
    },
    {
      "inputs": [
        {
          "internalType": "address",
          "name": "owner",
          "type": "address"
        }
      ],
      "name": "balanceOf",
      "outputs": [
        {
          "internalType": "uint256",
          "name": "",
          "type": "uint256"
        }
      ],
      "stateMutability": "view",
      "type": "function"
    },
    {
      "inputs": [
        {
          "internalType": "uint256",
          "name": "_nftId",
          "type": "uint256"
        }
      ],
      "name": "getApeAttributes",
      "outputs": [
        {
          "components": [
            {
              "internalType": "uint256",
              "name": "idAttribute",
              "type": "uint256"
            },
            {
              "internalType": "uint256",
              "name": "value",
              "type": "uint256"
            }
          ],
          "internalType": "struct ApesNFT.Attributes[]",
          "name": "",
          "type": "tuple[]"
        }
      ],
      "stateMutability": "view",
      "type": "function"
    },
    {
      "inputs": [
        {
          "internalType": "uint256",
          "name": "tokenId",
          "type": "uint256"
        }
      ],
      "name": "getApproved",
      "outputs": [
        {
          "internalType": "address",
          "name": "",
          "type": "address"
        }
      ],
      "stateMutability": "view",
      "type": "function"
    },
    {
      "inputs": [],
      "name": "getCurrentTokenId",
      "outputs": [
        {
          "internalType": "uint256",
          "name": "",
          "type": "uint256"
        }
      ],
      "stateMutability": "view",
      "type": "function"
    },
    {
      "inputs": [
        {
          "internalType": "address",
          "name": "owner",
          "type": "address"
        },
        {
          "internalType": "address",
          "name": "operator",
          "type": "address"
        }
      ],
      "name": "isApprovedForAll",
      "outputs": [
        {
          "internalType": "bool",
          "name": "",
          "type": "bool"
        }
      ],
      "stateMutability": "view",
      "type": "function"
    },
    {
      "inputs": [
        {
          "internalType": "string",
          "name": "_tokenURI",
          "type": "string"
        },
        {
          "components": [
            {
              "internalType": "uint256",
              "name": "idAttribute",
              "type": "uint256"
            },
            {
              "internalType": "uint256",
              "name": "value",
              "type": "uint256"
            }
          ],
          "internalType": "struct ApesNFT.Attributes[]",
          "name": "_attributes",
          "type": "tuple[]"
        }
      ],
      "name": "mint",
      "outputs": [
        {
          "internalType": "uint256",
          "name": "",
          "type": "uint256"
        }
      ],
      "stateMutability": "nonpayable",
      "type": "function"
    },
    {
      "inputs": [],
      "name": "name",
      "outputs": [
        {
          "internalType": "string",
          "name": "",
          "type": "string"
        }
      ],
      "stateMutability": "view",
      "type": "function"
    },
    {
      "inputs": [
        {
          "internalType": "uint256",
          "name": "",
          "type": "uint256"
        },
        {
          "internalType": "uint256",
          "name": "",
          "type": "uint256"
        }
      ],
      "name": "onChainData",
      "outputs": [
        {
          "internalType": "uint256",
          "name": "idAttribute",
          "type": "uint256"
        },
        {
          "internalType": "uint256",
          "name": "value",
          "type": "uint256"
        }
      ],
      "stateMutability": "view",
      "type": "function"
    },
    {
      "inputs": [],
      "name": "owner",
      "outputs": [
        {
          "internalType": "address",
          "name": "",
          "type": "address"
        }
      ],
      "stateMutability": "view",
      "type": "function"
    },
    {
      "inputs": [
        {
          "internalType": "uint256",
          "name": "tokenId",
          "type": "uint256"
        }
      ],
      "name": "ownerOf",
      "outputs": [
        {
          "internalType": "address",
          "name": "",
          "type": "address"
        }
      ],
      "stateMutability": "view",
      "type": "function"
    },
    {
      "inputs": [],
      "name": "renounceOwnership",
      "outputs": [],
      "stateMutability": "nonpayable",
      "type": "function"
    },
    {
      "inputs": [],
      "name": "royaltyPercentage",
      "outputs": [
        {
          "internalType": "uint256",
          "name": "",
          "type": "uint256"
        }
      ],
      "stateMutability": "view",
      "type": "function"
    },
    {
      "inputs": [
        {
          "internalType": "address",
          "name": "from",
          "type": "address"
        },
        {
          "internalType": "address",
          "name": "to",
          "type": "address"
        },
        {
          "internalType": "uint256",
          "name": "tokenId",
          "type": "uint256"
        }
      ],
      "name": "safeTransferFrom",
      "outputs": [],
      "stateMutability": "nonpayable",
      "type": "function"
    },
    {
      "inputs": [
        {
          "internalType": "address",
          "name": "from",
          "type": "address"
        },
        {
          "internalType": "address",
          "name": "to",
          "type": "address"
        },
        {
          "internalType": "uint256",
          "name": "tokenId",
          "type": "uint256"
        },
        {
          "internalType": "bytes",
          "name": "data",
          "type": "bytes"
        }
      ],
      "name": "safeTransferFrom",
      "outputs": [],
      "stateMutability": "nonpayable",
      "type": "function"
    },
    {
      "inputs": [
        {
          "internalType": "address",
          "name": "operator",
          "type": "address"
        },
        {
          "internalType": "bool",
          "name": "approved",
          "type": "bool"
        }
      ],
      "name": "setApprovalForAll",
      "outputs": [],
      "stateMutability": "nonpayable",
      "type": "function"
    },
    {
      "inputs": [
        {
          "internalType": "uint256",
          "name": "_royaltyPercentage",
          "type": "uint256"
        }
      ],
      "name": "setRoyaltyPercentage",
      "outputs": [],
      "stateMutability": "nonpayable",
      "type": "function"
    },
    {
      "inputs": [
        {
          "internalType": "bytes4",
          "name": "interfaceId",
          "type": "bytes4"
        }
      ],
      "name": "supportsInterface",
      "outputs": [
        {
          "internalType": "bool",
          "name": "",
          "type": "bool"
        }
      ],
      "stateMutability": "view",
      "type": "function"
    },
    {
      "inputs": [],
      "name": "symbol",
      "outputs": [
        {
          "internalType": "string",
          "name": "",
          "type": "string"
        }
      ],
      "stateMutability": "view",
      "type": "function"
    },
    {
      "inputs": [],
      "name": "tokenCount",
      "outputs": [
        {
          "internalType": "uint256",
          "name": "_value",
          "type": "uint256"
        }
      ],
      "stateMutability": "view",
      "type": "function"
    },
    {
      "inputs": [
        {
          "internalType": "uint256",
          "name": "tokenId",
          "type": "uint256"
        }
      ],
      "name": "tokenURI",
      "outputs": [
        {
          "internalType": "string",
          "name": "",
          "type": "string"
        }
      ],
      "stateMutability": "view",
      "type": "function"
    },
    {
      "inputs": [
        {
          "internalType": "address",
          "name": "from",
          "type": "address"
        },
        {
          "internalType": "address",
          "name": "to",
          "type": "address"
        },
        {
          "internalType": "uint256",
          "name": "tokenId",
          "type": "uint256"
        }
      ],
      "name": "transferFrom",
      "outputs": [],
      "stateMutability": "nonpayable",
      "type": "function"
    },
    {
      "inputs": [
        {
          "internalType": "address",
          "name": "newOwner",
          "type": "address"
        }
      ],
      "name": "transferOwnership",
      "outputs": [],
      "stateMutability": "nonpayable",
      "type": "function"
    }
  ],
  "bytecode": "0x60806040523480156200001157600080fd5b5060405162003eb738038062003eb7833981810160405281019062000037919062000374565b828281600090816200004a91906200064f565b5080600190816200005c91906200064f565b5050506200007f62000073620000d860201b60201c565b620000e060201b60201c565b80600a811115620000c7576040517f08c379a0000000000000000000000000000000000000000000000000000000008152600401620000be90620007bd565b60405180910390fd5b81600a8190555050505050620007df565b600033905090565b6000600760009054906101000a900473ffffffffffffffffffffffffffffffffffffffff16905081600760006101000a81548173ffffffffffffffffffffffffffffffffffffffff021916908373ffffffffffffffffffffffffffffffffffffffff1602179055508173ffffffffffffffffffffffffffffffffffffffff168173ffffffffffffffffffffffffffffffffffffffff167f8be0079c531659141344cd1fd0a4f28419497f9722a3daafe3b4186f6b6457e060405160405180910390a35050565b6000604051905090565b600080fd5b600080fd5b600080fd5b600080fd5b6000601f19601f8301169050919050565b7f4e487b7100000000000000000000000000000000000000000000000000000000600052604160045260246000fd5b6200020f82620001c4565b810181811067ffffffffffffffff82111715620002315762000230620001d5565b5b80604052505050565b600062000246620001a6565b905062000254828262000204565b919050565b600067ffffffffffffffff821115620002775762000276620001d5565b5b6200028282620001c4565b9050602081019050919050565b60005b83811015620002af57808201518184015260208101905062000292565b60008484015250505050565b6000620002d2620002cc8462000259565b6200023a565b905082815260208101848484011115620002f157620002f0620001bf565b5b620002fe8482856200028f565b509392505050565b600082601f8301126200031e576200031d620001ba565b5b815162000330848260208601620002bb565b91505092915050565b6000819050919050565b6200034e8162000339565b81146200035a57600080fd5b50565b6000815190506200036e8162000343565b92915050565b60008060006060848603121562000390576200038f620001b0565b5b600084015167ffffffffffffffff811115620003b157620003b0620001b5565b5b620003bf8682870162000306565b935050602084015167ffffffffffffffff811115620003e357620003e2620001b5565b5b620003f18682870162000306565b925050604062000404868287016200035d565b9150509250925092565b600081519050919050565b7f4e487b7100000000000000000000000000000000000000000000000000000000600052602260045260246000fd5b600060028204905060018216806200046157607f821691505b60208210810362000477576200047662000419565b5b50919050565b60008190508160005260206000209050919050565b60006020601f8301049050919050565b600082821b905092915050565b600060088302620004e17fffffffffffffffffffffffffffffffffffffffffffffffffffffffffffffffff82620004a2565b620004ed8683620004a2565b95508019841693508086168417925050509392505050565b6000819050919050565b6000620005306200052a620005248462000339565b62000505565b62000339565b9050919050565b6000819050919050565b6200054c836200050f565b620005646200055b8262000537565b848454620004af565b825550505050565b600090565b6200057b6200056c565b6200058881848462000541565b505050565b5b81811015620005b057620005a460008262000571565b6001810190506200058e565b5050565b601f821115620005ff57620005c9816200047d565b620005d48462000492565b81016020851015620005e4578190505b620005fc620005f38562000492565b8301826200058d565b50505b505050565b600082821c905092915050565b6000620006246000198460080262000604565b1980831691505092915050565b60006200063f838362000611565b9150826002028217905092915050565b6200065a826200040e565b67ffffffffffffffff811115620006765762000675620001d5565b5b62000682825462000448565b6200068f828285620005b4565b600060209050601f831160018114620006c75760008415620006b2578287015190505b620006be858262000631565b8655506200072e565b601f198416620006d7866200047d565b60005b828110156200070157848901518255600182019150602085019450602081019050620006da565b868310156200072157848901516200071d601f89168262000611565b8355505b6001600288020188555050505b505050505050565b600082825260208201905092915050565b7f526f79616c746965732070657263656e746167652073686f756c64206265206560008201527f7175616c206f72206c65737373207468616e2031302500000000000000000000602082015250565b6000620007a560368362000736565b9150620007b28262000747565b604082019050919050565b60006020820190508181036000830152620007d88162000796565b9050919050565b6136c880620007ef6000396000f3fe608060405234801561001057600080fd5b50600436106101585760003560e01c806370a08231116100c3578063a22cb4651161007c578063a22cb465146103ca578063afb38b97146103e6578063b88d4fde14610416578063c87b56dd14610432578063e985e9c514610462578063f2fde38b1461049257610158565b806370a0823114610318578063715018a6146103485780638a71bb2d146103525780638da5cb5b1461037057806395d89b411461038e5780639f181b5e146103ac57610158565b806323b872dd1161011557806323b872dd1461025857806342842e0e1461027457806356189236146102905780636071dfb6146102ae57806361ba27da146102cc5780636352211e146102e857610158565b806301ffc9a71461015d57806306fdde031461018d578063081812fc146101ab578063095ea7b3146101db57806313b6546f146101f75780631cc9201a14610228575b600080fd5b61017760048036038101906101729190611f5c565b6104ae565b6040516101849190611fa4565b60405180910390f35b610195610590565b6040516101a2919061204f565b60405180910390f35b6101c560048036038101906101c091906120a7565b610622565b6040516101d29190612115565b60405180910390f35b6101f560048036038101906101f0919061215c565b610668565b005b610211600480360381019061020c919061219c565b61077f565b60405161021f9291906121eb565b60405180910390f35b610242600480360381019061023d91906120a7565b6107c0565b60405161024f9190612301565b60405180910390f35b610272600480360381019061026d9190612323565b610846565b005b61028e60048036038101906102899190612323565b6108a6565b005b6102986108c6565b6040516102a59190612376565b60405180910390f35b6102b66108d7565b6040516102c39190612376565b60405180910390f35b6102e660048036038101906102e191906120a7565b6108dc565b005b61030260048036038101906102fd91906120a7565b610934565b60405161030f9190612115565b60405180910390f35b610332600480360381019061032d9190612391565b6109e5565b60405161033f9190612376565b60405180910390f35b610350610a9c565b005b61035a610ab0565b6040516103679190612376565b60405180910390f35b610378610ab6565b6040516103859190612115565b60405180910390f35b610396610ae0565b6040516103a3919061204f565b60405180910390f35b6103b4610b72565b6040516103c19190612376565b60405180910390f35b6103e460048036038101906103df91906123ea565b610b7e565b005b61040060048036038101906103fb919061267c565b610b94565b60405161040d9190612376565b60405180910390f35b610430600480360381019061042b9190612795565b610d4f565b005b61044c600480360381019061044791906120a7565b610db1565b604051610459919061204f565b60405180910390f35b61047c60048036038101906104779190612818565b610ec3565b6040516104899190611fa4565b60405180910390f35b6104ac60048036038101906104a79190612391565b610f57565b005b60007f80ac58cd000000000000000000000000000000000000000000000000000000007bffffffffffffffffffffffffffffffffffffffffffffffffffffffff1916827bffffffffffffffffffffffffffffffffffffffffffffffffffffffff1916148061057957507f5b5e139f000000000000000000000000000000000000000000000000000000007bffffffffffffffffffffffffffffffffffffffffffffffffffffffff1916827bffffffffffffffffffffffffffffffffffffffffffffffffffffffff1916145b80610589575061058882610fda565b5b9050919050565b60606000805461059f90612887565b80601f01602080910402602001604051908101604052809291908181526020018280546105cb90612887565b80156106185780601f106105ed57610100808354040283529160200191610618565b820191906000526020600020905b8154815290600101906020018083116105fb57829003601f168201915b5050505050905090565b600061062d82611044565b6004600083815260200190815260200160002060009054906101000a900473ffffffffffffffffffffffffffffffffffffffff169050919050565b600061067382610934565b90508073ffffffffffffffffffffffffffffffffffffffff168373ffffffffffffffffffffffffffffffffffffffff16036106e3576040517f08c379a00000000000000000000000000000000000000000000000000000000081526004016106da9061292a565b60405180910390fd5b8073ffffffffffffffffffffffffffffffffffffffff1661070261108f565b73ffffffffffffffffffffffffffffffffffffffff16148061073157506107308161072b61108f565b610ec3565b5b610770576040517f08c379a0000000000000000000000000000000000000000000000000000000008152600401610767906129bc565b60405180910390fd5b61077a8383611097565b505050565b600b602052816000526040600020818154811061079b57600080fd5b9060005260206000209060020201600091509150508060000154908060010154905082565b6060600b6000838152602001908152602001600020805480602002602001604051908101604052809291908181526020016000905b8282101561083b578382906000526020600020906002020160405180604001604052908160008201548152602001600182015481525050815260200190600101906107f5565b505050509050919050565b61085761085161108f565b82611150565b610896576040517f08c379a000000000000000000000000000000000000000000000000000000000815260040161088d90612a4e565b60405180910390fd5b6108a18383836111e5565b505050565b6108c183838360405180602001604052806000815250610d4f565b505050565b60006108d2600861144b565b905090565b600a81565b6108e4611459565b80600a811115610929576040517f08c379a000000000000000000000000000000000000000000000000000000000815260040161092090612ae0565b60405180910390fd5b81600a819055505050565b6000806002600084815260200190815260200160002060009054906101000a900473ffffffffffffffffffffffffffffffffffffffff169050600073ffffffffffffffffffffffffffffffffffffffff168173ffffffffffffffffffffffffffffffffffffffff16036109dc576040517f08c379a00000000000000000000000000000000000000000000000000000000081526004016109d390612b4c565b60405180910390fd5b80915050919050565b60008073ffffffffffffffffffffffffffffffffffffffff168273ffffffffffffffffffffffffffffffffffffffff1603610a55576040517f08c379a0000000000000000000000000000000000000000000000000000000008152600401610a4c90612bde565b60405180910390fd5b600360008373ffffffffffffffffffffffffffffffffffffffff1673ffffffffffffffffffffffffffffffffffffffff168152602001908152602001600020549050919050565b610aa4611459565b610aae60006114d7565b565b600a5481565b6000600760009054906101000a900473ffffffffffffffffffffffffffffffffffffffff16905090565b606060018054610aef90612887565b80601f0160208091040260200160405190810160405280929190818152602001828054610b1b90612887565b8015610b685780601f10610b3d57610100808354040283529160200191610b68565b820191906000526020600020905b815481529060010190602001808311610b4b57829003601f168201915b5050505050905090565b60088060000154905081565b610b90610b8961108f565b838361159d565b5050565b6000610b9e611459565b612710610bab600861144b565b10610beb576040517f08c379a0000000000000000000000000000000000000000000000000000000008152600401610be290612c4a565b60405180910390fd5b610bf56008611709565b6000610c01600861144b565b9050610c0d338261171f565b610c17818561173d565b60008351905060005b81811015610ccd5760096040518060400160405280878481518110610c4857610c47612c6a565b5b6020026020010151600001518152602001878481518110610c6c57610c6b612c6a565b5b6020026020010151602001518152509080600181540180825580915050600190039060005260206000209060020201600090919091909150600082015181600001556020820151816001015550508080610cc590612cc8565b915050610c20565b506009600b6000848152602001908152602001600020908054610cf1929190611e39565b5060096000610d009190611ea5565b7feea8d2592d938425e8da4e3a45efbb4cd6c731ea44fbbdd56b783175640c5e85610d2b600861144b565b3387604051610d3c93929190612d10565b60405180910390a1819250505092915050565b610d60610d5a61108f565b83611150565b610d9f576040517f08c379a0000000000000000000000000000000000000000000000000000000008152600401610d9690612a4e565b60405180910390fd5b610dab848484846117aa565b50505050565b6060610dbc82611044565b6000600660008481526020019081526020016000208054610ddc90612887565b80601f0160208091040260200160405190810160405280929190818152602001828054610e0890612887565b8015610e555780601f10610e2a57610100808354040283529160200191610e55565b820191906000526020600020905b815481529060010190602001808311610e3857829003601f168201915b505050505090506000610e66611806565b90506000815103610e7b578192505050610ebe565b600082511115610eb0578082604051602001610e98929190612d8a565b60405160208183030381529060405292505050610ebe565b610eb98461181d565b925050505b919050565b6000600560008473ffffffffffffffffffffffffffffffffffffffff1673ffffffffffffffffffffffffffffffffffffffff16815260200190815260200160002060008373ffffffffffffffffffffffffffffffffffffffff1673ffffffffffffffffffffffffffffffffffffffff16815260200190815260200160002060009054906101000a900460ff16905092915050565b610f5f611459565b600073ffffffffffffffffffffffffffffffffffffffff168173ffffffffffffffffffffffffffffffffffffffff1603610fce576040517f08c379a0000000000000000000000000000000000000000000000000000000008152600401610fc590612e20565b60405180910390fd5b610fd7816114d7565b50565b60007f01ffc9a7000000000000000000000000000000000000000000000000000000007bffffffffffffffffffffffffffffffffffffffffffffffffffffffff1916827bffffffffffffffffffffffffffffffffffffffffffffffffffffffff1916149050919050565b61104d81611885565b61108c576040517f08c379a000000000000000000000000000000000000000000000000000000000815260040161108390612b4c565b60405180910390fd5b50565b600033905090565b816004600083815260200190815260200160002060006101000a81548173ffffffffffffffffffffffffffffffffffffffff021916908373ffffffffffffffffffffffffffffffffffffffff160217905550808273ffffffffffffffffffffffffffffffffffffffff1661110a83610934565b73ffffffffffffffffffffffffffffffffffffffff167f8c5be1e5ebec7d5bd14f71427d1e84f3dd0314c0f7b2291e5b200ac8c7c3b92560405160405180910390a45050565b60008061115c83610934565b90508073ffffffffffffffffffffffffffffffffffffffff168473ffffffffffffffffffffffffffffffffffffffff16148061119e575061119d8185610ec3565b5b806111dc57508373ffffffffffffffffffffffffffffffffffffffff166111c484610622565b73ffffffffffffffffffffffffffffffffffffffff16145b91505092915050565b8273ffffffffffffffffffffffffffffffffffffffff1661120582610934565b73ffffffffffffffffffffffffffffffffffffffff161461125b576040517f08c379a000000000000000000000000000000000000000000000000000000000815260040161125290612eb2565b60405180910390fd5b600073ffffffffffffffffffffffffffffffffffffffff168273ffffffffffffffffffffffffffffffffffffffff16036112ca576040517f08c379a00000000000000000000000000000000000000000000000000000000081526004016112c190612f44565b60405180910390fd5b6112d58383836118f1565b6112e0600082611097565b6001600360008573ffffffffffffffffffffffffffffffffffffffff1673ffffffffffffffffffffffffffffffffffffffff16815260200190815260200160002060008282546113309190612f64565b925050819055506001600360008473ffffffffffffffffffffffffffffffffffffffff1673ffffffffffffffffffffffffffffffffffffffff16815260200190815260200160002060008282546113879190612f98565b92505081905550816002600083815260200190815260200160002060006101000a81548173ffffffffffffffffffffffffffffffffffffffff021916908373ffffffffffffffffffffffffffffffffffffffff160217905550808273ffffffffffffffffffffffffffffffffffffffff168473ffffffffffffffffffffffffffffffffffffffff167fddf252ad1be2c89b69c2b068fc378daa952ba7f163c4a11628f55a4df523b3ef60405160405180910390a46114468383836118f6565b505050565b600081600001549050919050565b61146161108f565b73ffffffffffffffffffffffffffffffffffffffff1661147f610ab6565b73ffffffffffffffffffffffffffffffffffffffff16146114d5576040517f08c379a00000000000000000000000000000000000000000000000000000000081526004016114cc90613018565b60405180910390fd5b565b6000600760009054906101000a900473ffffffffffffffffffffffffffffffffffffffff16905081600760006101000a81548173ffffffffffffffffffffffffffffffffffffffff021916908373ffffffffffffffffffffffffffffffffffffffff1602179055508173ffffffffffffffffffffffffffffffffffffffff168173ffffffffffffffffffffffffffffffffffffffff167f8be0079c531659141344cd1fd0a4f28419497f9722a3daafe3b4186f6b6457e060405160405180910390a35050565b8173ffffffffffffffffffffffffffffffffffffffff168373ffffffffffffffffffffffffffffffffffffffff160361160b576040517f08c379a000000000000000000000000000000000000000000000000000000000815260040161160290613084565b60405180910390fd5b80600560008573ffffffffffffffffffffffffffffffffffffffff1673ffffffffffffffffffffffffffffffffffffffff16815260200190815260200160002060008473ffffffffffffffffffffffffffffffffffffffff1673ffffffffffffffffffffffffffffffffffffffff16815260200190815260200160002060006101000a81548160ff0219169083151502179055508173ffffffffffffffffffffffffffffffffffffffff168373ffffffffffffffffffffffffffffffffffffffff167f17307eab39ab6107e8899845ad3d59bd9653f200f220920489ca2b5937696c31836040516116fc9190611fa4565b60405180910390a3505050565b6001816000016000828254019250508190555050565b6117398282604051806020016040528060008152506118fb565b5050565b61174682611885565b611785576040517f08c379a000000000000000000000000000000000000000000000000000000000815260040161177c90613116565b60405180910390fd5b806006600084815260200190815260200160002090816117a591906132e2565b505050565b6117b58484846111e5565b6117c184848484611956565b611800576040517f08c379a00000000000000000000000000000000000000000000000000000000081526004016117f790613426565b60405180910390fd5b50505050565b606060405180602001604052806000815250905090565b606061182882611044565b6000611832611806565b90506000815111611852576040518060200160405280600081525061187d565b8061185c84611add565b60405160200161186d929190612d8a565b6040516020818303038152906040525b915050919050565b60008073ffffffffffffffffffffffffffffffffffffffff166002600084815260200190815260200160002060009054906101000a900473ffffffffffffffffffffffffffffffffffffffff1673ffffffffffffffffffffffffffffffffffffffff1614159050919050565b505050565b505050565b6119058383611c3d565b6119126000848484611956565b611951576040517f08c379a000000000000000000000000000000000000000000000000000000000815260040161194890613426565b60405180910390fd5b505050565b60006119778473ffffffffffffffffffffffffffffffffffffffff16611e16565b15611ad0578373ffffffffffffffffffffffffffffffffffffffff1663150b7a026119a061108f565b8786866040518563ffffffff1660e01b81526004016119c2949392919061349b565b6020604051808303816000875af19250505080156119fe57506040513d601f19601f820116820180604052508101906119fb91906134fc565b60015b611a80573d8060008114611a2e576040519150601f19603f3d011682016040523d82523d6000602084013e611a33565b606091505b506000815103611a78576040517f08c379a0000000000000000000000000000000000000000000000000000000008152600401611a6f90613426565b60405180910390fd5b805181602001fd5b63150b7a0260e01b7bffffffffffffffffffffffffffffffffffffffffffffffffffffffff1916817bffffffffffffffffffffffffffffffffffffffffffffffffffffffff191614915050611ad5565b600190505b949350505050565b606060008203611b24576040518060400160405280600181526020017f30000000000000000000000000000000000000000000000000000000000000008152509050611c38565b600082905060005b60008214611b56578080611b3f90612cc8565b915050600a82611b4f9190613558565b9150611b2c565b60008167ffffffffffffffff811115611b7257611b71612434565b5b6040519080825280601f01601f191660200182016040528015611ba45781602001600182028036833780820191505090505b5090505b60008514611c3157600182611bbd9190612f64565b9150600a85611bcc9190613589565b6030611bd89190612f98565b60f81b818381518110611bee57611bed612c6a565b5b60200101907effffffffffffffffffffffffffffffffffffffffffffffffffffffffffffff1916908160001a905350600a85611c2a9190613558565b9450611ba8565b8093505050505b919050565b600073ffffffffffffffffffffffffffffffffffffffff168273ffffffffffffffffffffffffffffffffffffffff1603611cac576040517f08c379a0000000000000000000000000000000000000000000000000000000008152600401611ca390613606565b60405180910390fd5b611cb581611885565b15611cf5576040517f08c379a0000000000000000000000000000000000000000000000000000000008152600401611cec90613672565b60405180910390fd5b611d01600083836118f1565b6001600360008473ffffffffffffffffffffffffffffffffffffffff1673ffffffffffffffffffffffffffffffffffffffff1681526020019081526020016000206000828254611d519190612f98565b92505081905550816002600083815260200190815260200160002060006101000a81548173ffffffffffffffffffffffffffffffffffffffff021916908373ffffffffffffffffffffffffffffffffffffffff160217905550808273ffffffffffffffffffffffffffffffffffffffff16600073ffffffffffffffffffffffffffffffffffffffff167fddf252ad1be2c89b69c2b068fc378daa952ba7f163c4a11628f55a4df523b3ef60405160405180910390a4611e12600083836118f6565b5050565b6000808273ffffffffffffffffffffffffffffffffffffffff163b119050919050565b828054828255906000526020600020906002028101928215611e945760005260206000209160020282015b82811115611e935782826000820154816000015560018201548160010155505091600201919060020190611e64565b5b509050611ea19190611ec9565b5090565b5080546000825560020290600052602060002090810190611ec69190611ec9565b50565b5b80821115611eec57600080820160009055600182016000905550600201611eca565b5090565b6000604051905090565b600080fd5b600080fd5b60007fffffffff0000000000000000000000000000000000000000000000000000000082169050919050565b611f3981611f04565b8114611f4457600080fd5b50565b600081359050611f5681611f30565b92915050565b600060208284031215611f7257611f71611efa565b5b6000611f8084828501611f47565b91505092915050565b60008115159050919050565b611f9e81611f89565b82525050565b6000602082019050611fb96000830184611f95565b92915050565b600081519050919050565b600082825260208201905092915050565b60005b83811015611ff9578082015181840152602081019050611fde565b60008484015250505050565b6000601f19601f8301169050919050565b600061202182611fbf565b61202b8185611fca565b935061203b818560208601611fdb565b61204481612005565b840191505092915050565b600060208201905081810360008301526120698184612016565b905092915050565b6000819050919050565b61208481612071565b811461208f57600080fd5b50565b6000813590506120a18161207b565b92915050565b6000602082840312156120bd576120bc611efa565b5b60006120cb84828501612092565b91505092915050565b600073ffffffffffffffffffffffffffffffffffffffff82169050919050565b60006120ff826120d4565b9050919050565b61210f816120f4565b82525050565b600060208201905061212a6000830184612106565b92915050565b612139816120f4565b811461214457600080fd5b50565b60008135905061215681612130565b92915050565b6000806040838503121561217357612172611efa565b5b600061218185828601612147565b925050602061219285828601612092565b9150509250929050565b600080604083850312156121b3576121b2611efa565b5b60006121c185828601612092565b92505060206121d285828601612092565b9150509250929050565b6121e581612071565b82525050565b600060408201905061220060008301856121dc565b61220d60208301846121dc565b9392505050565b600081519050919050565b600082825260208201905092915050565b6000819050602082019050919050565b61224981612071565b82525050565b6040820160008201516122656000850182612240565b5060208201516122786020850182612240565b50505050565b600061228a838361224f565b60408301905092915050565b6000602082019050919050565b60006122ae82612214565b6122b8818561221f565b93506122c383612230565b8060005b838110156122f45781516122db888261227e565b97506122e683612296565b9250506001810190506122c7565b5085935050505092915050565b6000602082019050818103600083015261231b81846122a3565b905092915050565b60008060006060848603121561233c5761233b611efa565b5b600061234a86828701612147565b935050602061235b86828701612147565b925050604061236c86828701612092565b9150509250925092565b600060208201905061238b60008301846121dc565b92915050565b6000602082840312156123a7576123a6611efa565b5b60006123b584828501612147565b91505092915050565b6123c781611f89565b81146123d257600080fd5b50565b6000813590506123e4816123be565b92915050565b6000806040838503121561240157612400611efa565b5b600061240f85828601612147565b9250506020612420858286016123d5565b9150509250929050565b600080fd5b600080fd5b7f4e487b7100000000000000000000000000000000000000000000000000000000600052604160045260246000fd5b61246c82612005565b810181811067ffffffffffffffff8211171561248b5761248a612434565b5b80604052505050565b600061249e611ef0565b90506124aa8282612463565b919050565b600067ffffffffffffffff8211156124ca576124c9612434565b5b6124d382612005565b9050602081019050919050565b82818337600083830152505050565b60006125026124fd846124af565b612494565b90508281526020810184848401111561251e5761251d61242f565b5b6125298482856124e0565b509392505050565b600082601f8301126125465761254561242a565b5b81356125568482602086016124ef565b91505092915050565b600067ffffffffffffffff82111561257a57612579612434565b5b602082029050602081019050919050565b600080fd5b600080fd5b6000604082840312156125ab576125aa612590565b5b6125b56040612494565b905060006125c584828501612092565b60008301525060206125d984828501612092565b60208301525092915050565b60006125f86125f38461255f565b612494565b9050808382526020820190506040840283018581111561261b5761261a61258b565b5b835b8181101561264457806126308882612595565b84526020840193505060408101905061261d565b5050509392505050565b600082601f8301126126635761266261242a565b5b81356126738482602086016125e5565b91505092915050565b6000806040838503121561269357612692611efa565b5b600083013567ffffffffffffffff8111156126b1576126b0611eff565b5b6126bd85828601612531565b925050602083013567ffffffffffffffff8111156126de576126dd611eff565b5b6126ea8582860161264e565b9150509250929050565b600067ffffffffffffffff82111561270f5761270e612434565b5b61271882612005565b9050602081019050919050565b6000612738612733846126f4565b612494565b9050828152602081018484840111156127545761275361242f565b5b61275f8482856124e0565b509392505050565b600082601f83011261277c5761277b61242a565b5b813561278c848260208601612725565b91505092915050565b600080600080608085870312156127af576127ae611efa565b5b60006127bd87828801612147565b94505060206127ce87828801612147565b93505060406127df87828801612092565b925050606085013567ffffffffffffffff811115612800576127ff611eff565b5b61280c87828801612767565b91505092959194509250565b6000806040838503121561282f5761282e611efa565b5b600061283d85828601612147565b925050602061284e85828601612147565b9150509250929050565b7f4e487b7100000000000000000000000000000000000000000000000000000000600052602260045260246000fd5b6000600282049050600182168061289f57607f821691505b6020821081036128b2576128b1612858565b5b50919050565b7f4552433732313a20617070726f76616c20746f2063757272656e74206f776e6560008201527f7200000000000000000000000000000000000000000000000000000000000000602082015250565b6000612914602183611fca565b915061291f826128b8565b604082019050919050565b6000602082019050818103600083015261294381612907565b9050919050565b7f4552433732313a20617070726f76652063616c6c6572206973206e6f7420746f60008201527f6b656e206f776e6572206e6f7220617070726f76656420666f7220616c6c0000602082015250565b60006129a6603e83611fca565b91506129b18261294a565b604082019050919050565b600060208201905081810360008301526129d581612999565b9050919050565b7f4552433732313a2063616c6c6572206973206e6f7420746f6b656e206f776e6560008201527f72206e6f7220617070726f766564000000000000000000000000000000000000602082015250565b6000612a38602e83611fca565b9150612a43826129dc565b604082019050919050565b60006020820190508181036000830152612a6781612a2b565b9050919050565b7f526f79616c746965732070657263656e746167652073686f756c64206265206560008201527f7175616c206f72206c65737373207468616e2031302500000000000000000000602082015250565b6000612aca603683611fca565b9150612ad582612a6e565b604082019050919050565b60006020820190508181036000830152612af981612abd565b9050919050565b7f4552433732313a20696e76616c696420746f6b656e2049440000000000000000600082015250565b6000612b36601883611fca565b9150612b4182612b00565b602082019050919050565b60006020820190508181036000830152612b6581612b29565b9050919050565b7f4552433732313a2061646472657373207a65726f206973206e6f74206120766160008201527f6c6964206f776e65720000000000000000000000000000000000000000000000602082015250565b6000612bc8602983611fca565b9150612bd382612b6c565b604082019050919050565b60006020820190508181036000830152612bf781612bbb565b9050919050565b7f4e465473206172652063617070656420746f2031302c30303021000000000000600082015250565b6000612c34601a83611fca565b9150612c3f82612bfe565b602082019050919050565b60006020820190508181036000830152612c6381612c27565b9050919050565b7f4e487b7100000000000000000000000000000000000000000000000000000000600052603260045260246000fd5b7f4e487b7100000000000000000000000000000000000000000000000000000000600052601160045260246000fd5b6000612cd382612071565b91507fffffffffffffffffffffffffffffffffffffffffffffffffffffffffffffffff8203612d0557612d04612c99565b5b600182019050919050565b6000606082019050612d2560008301866121dc565b612d326020830185612106565b8181036040830152612d448184612016565b9050949350505050565b600081905092915050565b6000612d6482611fbf565b612d6e8185612d4e565b9350612d7e818560208601611fdb565b80840191505092915050565b6000612d968285612d59565b9150612da28284612d59565b91508190509392505050565b7f4f776e61626c653a206e6577206f776e657220697320746865207a65726f206160008201527f6464726573730000000000000000000000000000000000000000000000000000602082015250565b6000612e0a602683611fca565b9150612e1582612dae565b604082019050919050565b60006020820190508181036000830152612e3981612dfd565b9050919050565b7f4552433732313a207472616e736665722066726f6d20696e636f72726563742060008201527f6f776e6572000000000000000000000000000000000000000000000000000000602082015250565b6000612e9c602583611fca565b9150612ea782612e40565b604082019050919050565b60006020820190508181036000830152612ecb81612e8f565b9050919050565b7f4552433732313a207472616e7366657220746f20746865207a65726f2061646460008201527f7265737300000000000000000000000000000000000000000000000000000000602082015250565b6000612f2e602483611fca565b9150612f3982612ed2565b604082019050919050565b60006020820190508181036000830152612f5d81612f21565b9050919050565b6000612f6f82612071565b9150612f7a83612071565b9250828203905081811115612f9257612f91612c99565b5b92915050565b6000612fa382612071565b9150612fae83612071565b9250828201905080821115612fc657612fc5612c99565b5b92915050565b7f4f776e61626c653a2063616c6c6572206973206e6f7420746865206f776e6572600082015250565b6000613002602083611fca565b915061300d82612fcc565b602082019050919050565b6000602082019050818103600083015261303181612ff5565b9050919050565b7f4552433732313a20617070726f766520746f2063616c6c657200000000000000600082015250565b600061306e601983611fca565b915061307982613038565b602082019050919050565b6000602082019050818103600083015261309d81613061565b9050919050565b7f45524337323155524953746f726167653a2055524920736574206f66206e6f6e60008201527f6578697374656e7420746f6b656e000000000000000000000000000000000000602082015250565b6000613100602e83611fca565b915061310b826130a4565b604082019050919050565b6000602082019050818103600083015261312f816130f3565b9050919050565b60008190508160005260206000209050919050565b60006020601f8301049050919050565b600082821b905092915050565b6000600883026131987fffffffffffffffffffffffffffffffffffffffffffffffffffffffffffffffff8261315b565b6131a2868361315b565b95508019841693508086168417925050509392505050565b6000819050919050565b60006131df6131da6131d584612071565b6131ba565b612071565b9050919050565b6000819050919050565b6131f9836131c4565b61320d613205826131e6565b848454613168565b825550505050565b600090565b613222613215565b61322d8184846131f0565b505050565b5b818110156132515761324660008261321a565b600181019050613233565b5050565b601f8211156132965761326781613136565b6132708461314b565b8101602085101561327f578190505b61329361328b8561314b565b830182613232565b50505b505050565b600082821c905092915050565b60006132b96000198460080261329b565b1980831691505092915050565b60006132d283836132a8565b9150826002028217905092915050565b6132eb82611fbf565b67ffffffffffffffff81111561330457613303612434565b5b61330e8254612887565b613319828285613255565b600060209050601f83116001811461334c576000841561333a578287015190505b61334485826132c6565b8655506133ac565b601f19841661335a86613136565b60005b828110156133825784890151825560018201915060208501945060208101905061335d565b8683101561339f578489015161339b601f8916826132a8565b8355505b6001600288020188555050505b505050505050565b7f4552433732313a207472616e7366657220746f206e6f6e20455243373231526560008201527f63656976657220696d706c656d656e7465720000000000000000000000000000602082015250565b6000613410603283611fca565b915061341b826133b4565b604082019050919050565b6000602082019050818103600083015261343f81613403565b9050919050565b600081519050919050565b600082825260208201905092915050565b600061346d82613446565b6134778185613451565b9350613487818560208601611fdb565b61349081612005565b840191505092915050565b60006080820190506134b06000830187612106565b6134bd6020830186612106565b6134ca60408301856121dc565b81810360608301526134dc8184613462565b905095945050505050565b6000815190506134f681611f30565b92915050565b60006020828403121561351257613511611efa565b5b6000613520848285016134e7565b91505092915050565b7f4e487b7100000000000000000000000000000000000000000000000000000000600052601260045260246000fd5b600061356382612071565b915061356e83612071565b92508261357e5761357d613529565b5b828204905092915050565b600061359482612071565b915061359f83612071565b9250826135af576135ae613529565b5b828206905092915050565b7f4552433732313a206d696e7420746f20746865207a65726f2061646472657373600082015250565b60006135f0602083611fca565b91506135fb826135ba565b602082019050919050565b6000602082019050818103600083015261361f816135e3565b9050919050565b7f4552433732313a20746f6b656e20616c7265616479206d696e74656400000000600082015250565b600061365c601c83611fca565b915061366782613626565b602082019050919050565b6000602082019050818103600083015261368b8161364f565b905091905056fea2646970667358221220af256684cc9746ead8b1ba25cdd81627e8a46f6c479141837574a72d9593415664736f6c63430008100033",
  "linkReferences": {},
  "deployedLinkReferences": {}
}